{
  "_format": "hh3-artifact-1",
  "contractName": "HelloWorld",
  "sourceName": "contracts/HelloWorld.sol",
  "abi": [
    {
      "anonymous": false,
      "inputs": [
        {
          "indexed": false,
          "internalType": "string",
          "name": "message",
          "type": "string"
        }
      ],
      "name": "MessageUpdated",
      "type": "event"
    },
    {
      "inputs": [],
      "name": "mymsg",
      "outputs": [
        {
          "internalType": "string",
          "name": "",
          "type": "string"
        }
      ],
      "stateMutability": "view",
      "type": "function"
    },
    {
      "inputs": [
        {
          "internalType": "string",
          "name": "message",
          "type": "string"
        }
      ],
      "name": "setMsg",
      "outputs": [],
      "stateMutability": "nonpayable",
      "type": "function"
    }
  ],
  "bytecode": "0x60c0604052600c60809081526b48656c6c6f20576f726c642160a01b60a0525f9061002a90826100d4565b50348015610036575f5ffd5b5061018e565b634e487b7160e01b5f52604160045260245ffd5b600181811c9082168061006457607f821691505b60208210810361008257634e487b7160e01b5f52602260045260245ffd5b50919050565b601f8211156100cf57805f5260205f20601f840160051c810160208510156100ad5750805b601f840160051c820191505b818110156100cc575f81556001016100b9565b50505b505050565b81516001600160401b038111156100ed576100ed61003c565b610101816100fb8454610050565b84610088565b6020601f821160018114610133575f831561011c5750848201515b5f19600385901b1c1916600184901b1784556100cc565b5f84815260208120601f198516915b828110156101625787850151825560209485019460019092019101610142565b508482101561017f57868401515f19600387901b60f8161c191681555b50505050600190811b01905550565b6104888061019b5f395ff3fe608060405234801561000f575f5ffd5b5060043610610034575f3560e01c8063218c5b3f14610038578063c4784fd414610056575b5f5ffd5b61004061006b565b60405161004d9190610190565b60405180910390f35b6100696100643660046101d9565b6100f6565b005b5f80546100779061028c565b80601f01602080910402602001604051908101604052809291908181526020018280546100a39061028c565b80156100ee5780601f106100c5576101008083540402835291602001916100ee565b820191905f5260205f20905b8154815290600101906020018083116100d157829003601f168201915b505050505081565b5f81511161014a5760405162461bcd60e51b815260206004820152601760248201527f4d6573736167652063616e6e6f7420626520656d707479000000000000000000604482015260640160405180910390fd5b5f6101558282610310565b507f8fae638bf5c6396194a6bb16601c4035a07fa48191638ff4102f0d96f14cfefb5f60405161018591906103cb565b60405180910390a150565b602081525f82518060208401528060208501604085015e5f604082850101526040601f19601f83011684010191505092915050565b634e487b7160e01b5f52604160045260245ffd5b5f602082840312156101e9575f5ffd5b813567ffffffffffffffff8111156101ff575f5ffd5b8201601f8101841361020f575f5ffd5b803567ffffffffffffffff811115610229576102296101c5565b604051601f8201601f19908116603f0116810167ffffffffffffffff81118282101715610258576102586101c5565b60405281815282820160200186101561026f575f5ffd5b816020840160208301375f91810160200191909152949350505050565b600181811c908216806102a057607f821691505b6020821081036102be57634e487b7160e01b5f52602260045260245ffd5b50919050565b601f82111561030b57805f5260205f20601f840160051c810160208510156102e95750805b601f840160051c820191505b81811015610308575f81556001016102f5565b50505b505050565b815167ffffffffffffffff81111561032a5761032a6101c5565b61033e81610338845461028c565b846102c4565b6020601f821160018114610370575f83156103595750848201515b5f19600385901b1c1916600184901b178455610308565b5f84815260208120601f198516915b8281101561039f578785015182556020948501946001909201910161037f565b50848210156103bc57868401515f19600387901b60f8161c191681555b50505050600190811b01905550565b602081525f5f83546103dc8161028c565b806020860152600182165f81146103fa576001811461041657610447565b60ff1983166040870152604082151560051b8701019350610447565b865f5260205f205f5b8381101561043e5781548882016040015260019091019060200161041f565b87016040019450505b50919594505050505056fea26469706673582212206e7d3c8ed880c28448314a9c40947ebbd5577d77de1a5d8c615e4ba283b2d06c64736f6c634300081c0033",
  "linkReferences": {},
  "deployedLinkReferences": {},
  "immutableReferences": {},
  "inputSourceName": "project/contracts/HelloWorld.sol",
  "buildInfoId": "solc-0_8_28-10a0ed894c62fde0e672bfc06dad6f18db700420"
}