{
  "_format": "hh3-artifact-1",
  "contractName": "ToDoList",
  "sourceName": "contracts/ToDoList.sol",
  "abi": [
    {
      "anonymous": false,
      "inputs": [
        {
          "indexed": true,
          "internalType": "uint256",
          "name": "taskId",
          "type": "uint256"
        },
        {
          "indexed": false,
          "internalType": "bool",
          "name": "completed",
          "type": "bool"
        }
      ],
      "name": "TaskCompleted",
      "type": "event"
    },
    {
      "anonymous": false,
      "inputs": [
        {
          "indexed": true,
          "internalType": "uint256",
          "name": "taskId",
          "type": "uint256"
        },
        {
          "indexed": false,
          "internalType": "string",
          "name": "text",
          "type": "string"
        }
      ],
      "name": "TaskCreated",
      "type": "event"
    },
    {
      "inputs": [
        {
          "internalType": "string",
          "name": "text",
          "type": "string"
        }
      ],
      "name": "createTask",
      "outputs": [],
      "stateMutability": "nonpayable",
      "type": "function"
    },
    {
      "inputs": [
        {
          "internalType": "uint256",
          "name": "taskId",
          "type": "uint256"
        }
      ],
      "name": "getTask",
      "outputs": [
        {
          "internalType": "string",
          "name": "text",
          "type": "string"
        },
        {
          "internalType": "bool",
          "name": "completed",
          "type": "bool"
        }
      ],
      "stateMutability": "view",
      "type": "function"
    },
    {
      "inputs": [
        {
          "internalType": "string",
          "name": "text",
          "type": "string"
        }
      ],
      "name": "getTaskId",
      "outputs": [
        {
          "internalType": "uint256",
          "name": "taskId",
          "type": "uint256"
        }
      ],
      "stateMutability": "view",
      "type": "function"
    },
    {
      "inputs": [],
      "name": "getTasksCount",
      "outputs": [
        {
          "internalType": "uint256",
          "name": "",
          "type": "uint256"
        }
      ],
      "stateMutability": "view",
      "type": "function"
    },
    {
      "inputs": [
        {
          "internalType": "uint256",
          "name": "",
          "type": "uint256"
        }
      ],
      "name": "tasks",
      "outputs": [
        {
          "internalType": "string",
          "name": "text",
          "type": "string"
        },
        {
          "internalType": "bool",
          "name": "completed",
          "type": "bool"
        }
      ],
      "stateMutability": "view",
      "type": "function"
    },
    {
      "inputs": [
        {
          "internalType": "uint256",
          "name": "taskId",
          "type": "uint256"
        }
      ],
      "name": "toggleTaskCompleted",
      "outputs": [],
      "stateMutability": "nonpayable",
      "type": "function"
    }
  ],
  "bytecode": "0x6080604052348015600e575f5ffd5b506108ca8061001c5f395ff3fe608060405234801561000f575f5ffd5b5060043610610060575f3560e01c8063111002aa146100645780631d65e77e146100795780634339c702146100a35780636140dd60146100c45780638d977672146100d75780639f899273146100ea575b5f5ffd5b610077610072366004610577565b6100f1565b005b61008c61008736600461062a565b6101af565b60405161009a92919061066f565b60405180910390f35b6100b66100b1366004610577565b6102d2565b60405190815260200161009a565b6100776100d236600461062a565b610387565b61008c6100e536600461062a565b6104ac565b5f546100b6565b604080518082019091528181525f602082018190528054600181018255908052815160029091027f290decd9548b62a8d60345a988386fc84ba6bc95484008f6362f93160ef3e563019081906101479082610716565b50602091909101516001918201805460ff19169115159190911790555f80549091610171916107d1565b9050807fa5ed9e6226c584326505694539c95cb0e3238ae09bcda5a65c00bbfdab1c6662836040516101a391906107f6565b60405180910390a25050565b5f80546060919083106102095760405162461bcd60e51b815260206004820152601760248201527f6765745461736b3a20696e76616c6964207461736b496400000000000000000060448201526064015b60405180910390fd5b5f5f848154811061021c5761021c61080f565b905f5260205f2090600202019050805f01816001015f9054906101000a900460ff1681805461024a90610692565b80601f016020809104026020016040519081016040528092919081815260200182805461027690610692565b80156102c15780601f10610298576101008083540402835291602001916102c1565b820191905f5260205f20905b8154815290600101906020018083116102a457829003601f168201915b505050505091509250925050915091565b5f5f8251116103235760405162461bcd60e51b815260206004820152601f60248201527f6765745461736b49643a20746578742063616e6e6f7420626520656d707479006044820152606401610200565b5f5b5f5481101561037e5782805190602001205f82815481106103485761034861080f565b905f5260205f2090600202015f016040516103639190610823565b6040518091039020036103765792915050565b600101610325565b505f1992915050565b5f5481106103e35760405162461bcd60e51b815260206004820152602360248201527f746f67676c655461736b436f6d706c657465643a20696e76616c6964207461736044820152621ad25960ea1b6064820152608401610200565b5f81815481106103f5576103f561080f565b5f9182526020822060016002909202010154815460ff909116159190839081106104215761042161080f565b905f5260205f2090600202016001015f6101000a81548160ff021916908315150217905550807fe21fa966ca5cd02748c0752352d18c48165e61cb55b4c29cccf924b5a95fcff15f838154811061047a5761047a61080f565b5f9182526020909120600160029092020101546040516104a19160ff161515815260200190565b60405180910390a250565b5f81815481106104ba575f80fd5b905f5260205f2090600202015f91509050805f0180546104d990610692565b80601f016020809104026020016040519081016040528092919081815260200182805461050590610692565b80156105505780601f1061052757610100808354040283529160200191610550565b820191905f5260205f20905b81548152906001019060200180831161053357829003601f168201915b5050506001909301549192505060ff1682565b634e487b7160e01b5f52604160045260245ffd5b5f60208284031215610587575f5ffd5b813567ffffffffffffffff81111561059d575f5ffd5b8201601f810184136105ad575f5ffd5b803567ffffffffffffffff8111156105c7576105c7610563565b604051601f8201601f19908116603f0116810167ffffffffffffffff811182821017156105f6576105f6610563565b60405281815282820160200186101561060d575f5ffd5b816020840160208301375f91810160200191909152949350505050565b5f6020828403121561063a575f5ffd5b5035919050565b5f81518084528060208401602086015e5f602082860101526020601f19601f83011685010191505092915050565b604081525f6106816040830185610641565b905082151560208301529392505050565b600181811c908216806106a657607f821691505b6020821081036106c457634e487b7160e01b5f52602260045260245ffd5b50919050565b601f82111561071157805f5260205f20601f840160051c810160208510156106ef5750805b601f840160051c820191505b8181101561070e575f81556001016106fb565b50505b505050565b815167ffffffffffffffff81111561073057610730610563565b6107448161073e8454610692565b846106ca565b6020601f821160018114610776575f831561075f5750848201515b5f19600385901b1c1916600184901b17845561070e565b5f84815260208120601f198516915b828110156107a55787850151825560209485019460019092019101610785565b50848210156107c257868401515f19600387901b60f8161c191681555b50505050600190811b01905550565b818103818111156107f057634e487b7160e01b5f52601160045260245ffd5b92915050565b602081525f6108086020830184610641565b9392505050565b634e487b7160e01b5f52603260045260245ffd5b5f5f835461083081610692565b600182168015610847576001811461085c57610889565b60ff1983168652811515820286019350610889565b865f5260205f205f5b8381101561088157815488820152600190910190602001610865565b505081860193505b50919594505050505056fea2646970667358221220143eb34eefa2ca84706b392fcc4686f4a9576a305761c6fdf121acc0d634d21064736f6c634300081c0033",
  "linkReferences": {},
  "deployedLinkReferences": {},
  "immutableReferences": {},
  "inputSourceName": "project/contracts/ToDoList.sol",
  "buildInfoId": "solc-0_8_28-7580b37c14b7a54c4fb9b13bdbe5d49857cd13a8"
}